:040000004FEF33F09B
:1065B6000100839E8388839483861200838E83984A
:1065C600838483961200016E0C0EBD129494CA94B5
:1065D60001C0CBFFCA841200356EDCEC32F03550B8
:1065E600DFEC33F0345014EC34F01200026EFE0E81
:1065F6005F6E5F50FB0BCA6E000ECC6E9E929D9234
:10660600CA840250E6EC32F01200046EFE0E5F6E93
:106616005F50FB0BCA6E000ECC6E9E929D92CA8492
:1066260004509EEC33F012000C6E0C50016E026AA0
:10663600036A8E0E046E000E056EE0EC34F001C0A7
:1066460009F002C00AF003C00BF012000150030269
:10665600F3CF05F0F4CF06F001500402F3500626FE
:1066660002500302F350062605C001F006C002F0F0
:1066760012007F0E031402100110D8B406D0000ECB
:10668600011A000E021A800E031A01C001F002C0A0
:1066960002F003C003F012000001F26BF16BF06B25
:1066A600EF6B5F6AB60EF66E650EF76E000EF86E4D
:1066B6000900F5CFF3F00900F5CFF4F000014BEF38
:1066C60037F001C003F002C004F0060ED89003367E
:1066D6000436E82EFBD703C005F004C006F006C05A
:1066E600BEFF05C003F0D8900332D8900332300EB7
:1066F6000316BD50CF0B0310BD6E120001C003F090
:1067060002C004F0060ED89003360436E82EFBD7F6
:1067160003C005F004C006F006C0BBFF05C003F0C9
:10672600D8900332D8900332300E0316BA50CF0BEE
:106736000310BA6E1200026E0C0EBA6E050EF66EDD
:10674600000EF76E300EF86E0800F5CF01F001A0CE
:1067560002D0036802D0000E036E0350D8B402D0F4
:10676600949201D09396CA9402C0CBFFCA841200B9
:10677600000E0C6E0A50800AF36E800EF35C000E5B
:10678600D8B4095CD8B006D0096C0A1ED8B00A2A5B
:10679600010E0C6E09C001F00AC002F0036A8E0EEB
:1067A600046E0CC005F0E0EC34F001C009F002C044
:1067B6000AF003C00BF01200316E000E336E000EAD
:1067C600326E000E306E000E2F6EAE0E106E230E61
:1067D600116E410E126E315017EC33F009C00DF0F8
:1067E6000AC00EF00BC00FF065EC36F00DC01CF0C1
:1067F6000EC01DF00FC01EF090EC35F01CC02BF043
:106806001DC02CF01EC02DF01FC02EF02BC032F084
:106816002CC033F032C001F033C002F064EC33F028
:106826001200316E000E336E000E326E000E306EA8
:10683600000E2F6EAE0E106E230E116E410E126EEE
:10684600315017EC33F009C00DF00AC00EF00BC042
:106856000FF065EC36F00DC01CF00EC01DF00FC039
:106866001EF090EC35F01CC02BF01DC02CF01EC0A5
:106876002DF01FC02EF02BC032F02CC033F032C0EA
:1068860001F033C002F081EC33F0120009AE16D0ED
:1068960007C00DF008C00EF009C00FF00D1E0E1E49
:1068A6000F1E0D2A000E0E220F22000E0D24076E5B
:1068B600000E0E20086E800E0F20096E0CAE16D04C
:1068C6000AC00DF00BC00EF00CC00FF00D1E0E1E10
:1068D6000F1E0D2A000E0E220F22000E0D240A6E28
:1068E600000E0E200B6E800E0F200C6E000E071A87
:1068F600000E081A800E091A000E0A1A000E0B1A4C
:10690600800E0C1A0A50075C0B5008580C50095898
:10691600D8B002D0D89001D0D8801200000E966E62
:1069260096CF95FF95CF94FF94CF93FF93CF92FF89
:10693600000E846E84CF83FF83CF82FF82CF81FFD8
:1069460081CF80FF000E366E000E356E680E346EF7
:10695600E40EE82EFED7342EFCD700D0D388D38A97
:10696600D38C000E966E96CF95FF95CF94FF94CF5D
:1069760093FF93CF92FF000E846E84CF83FF83CF65
:1069860082FF82CF81FF81CF80FF948E949C000E80
:10699600846E000E816E938093829384938693888F
:1069A600FF0EF9EC32F0FF0E08EC33F0000EDFECD0
:1069B60033F0000E14EC34F012000450D8B405D0B5
:1069C600015002100310D8A40CD0000E016E000E68
:1069D600026E000E036E44D0042AD89003320232AF
:1069E6000132000E0114066E000E0214076EFE0E32
:1069F6000314086E065007100810D8B40CD0ECD754
:106A0600042A010E0126000E0222000E0322D8904F
:106A1600033202320132000E0114066E000E021419
:106A2600076EFF0E0314086E065007100810D8B440
:106A360006D0E6D70406D89001360236033602AEF3
:106A4600F9D704A0029ED8900432045003120550D0
:106A5600D8A4038E01C001F002C002F003C003F007
:106A6600120081B481A605D081A081A802D081B28E
:106A76004FD081B481B605D081B081A802D081B251
:106A860038D081A481A609D081B081A806D081A280
:106A960004D0FF0E026EFE0E3ED081B481A605D054
:106AA60081B081B802D081B22FD081B481A605D041
:106AB60081B081A802D081A208D081B481A609D074
:106AC60081B081B806D081B204D0000E026E020EEB
:106AD60022D081A481B605D081B081A802D081B22E
:106AE600D8D781B481B608D081A081A805D081A26B
:106AF60003D00168026810D081B481A609D081A0B4
:106B060081B806D081A204D0000E026E010E03D019
:106B1600000E026E000E016E12001EC020F0216AE9
:106B2600226A1D34203601E3218020502A6E2A660F
:106B360001D038D0170E206E1CC021F01DC022F0E7
:106B46001EC023F02028246E04D0D890233222328F
:106B56002132242EFAD72150256E1D8EFF0E1C16CB
:106B6600FF0E1D16000E1E161C50266E1D50276E9B
:106B76001E50286E296A8E0E2A5E2AAE10D02A5022
:106B8600800A206EF10E800A205CD8A00BD0D89027
:106B960029322832273226322A3EF9D714D0170E48
:106BA6002A640FD0000E1C6E000E1D6E000E1E6EA7
:106BB600000E1F6E1BD0D89026362736283629366B
:106BC6002A062A66F8D72550D8B408D0291E281ECA
:106BD600271E266C000E27222822292226C01CF0FA
:106BE60027C01DF028C01EF029C01FF012002AC0C1
:106BF6002EF02F6A306A29342E3601E32F802E506C
:106C0600356E356601D00CD02DC02EF02F6A306A55
:106C16002C342E3601E32F802E50366E366607D082
:106C2600000E286E000E296E000E2A6E4AD0000E47
:106C3600326E000E336E000E346E3650890F355E9E
:106C46002AC036F02D50361A800E3616298EFF0EC3
:106C56002816FF0E2916000E2A162C8EFF0E2B164E
:106C6600FF0E2C16000E2D16180E316ED8903236E9
:106C7600333634362B50285C2C5029582D502A5840
:106C8600D8A007D02B50285E2C50295A2D502A5AAE
:106C96003280D890283629362A36312EE7D732C0A8
:106CA60001F033C002F034C003F035C004F036C042
:106CB60005F0E0EC34F001C028F002C029F003C072
:106CC6002AF012000FC013F0146A156A0E34133638
:106CD60001E314801350166E166601D00CD012C054
:106CE60013F0146A156A1134133601E31480135035
:106CF6001B6E1B6607D0000E0D6E000E0E6E000E8C
:106D06000F6E51D01B507B0F16260FC01BF0125072
:106D16001B1A800E1B160E8E118EFF0E1016FF0EFE
:106D26001116000E1216000E176E000E186E000ECB
:106D3600196E070E1A6E0DA006D0105017261150A8
:106D4600182212501922D8900F320E320D32D890D6
:106D56001036113612361A2EEED7090E1A6E0DA0FF
:106D660006D0105017261150182212501922D8900A
:106D76000F320E320D32D8901932183217321A2EBF
:106D8600EED717C001F018C002F019C003F016C004
:106D960004F01BC005F0E0EC34F001C00DF002C0B9
:106DA6000EF003C00FF0120014C017F015C018F053
:106DB60016C019F0000E1B6E000E1A6E1B50800ACC
:106DC600800F280ED8B41A5CD8B061D01AC001F072
:106DD6001BC002F0000E046E030E036E29EC33F0A6
:106DE60001501224D96E02501320DA6EDECF07F05E
:106DF600DECF08F0DDCF09F014C00AF015C00BF0A5
:106E060016C00CF049EC34F0D8B028D01AC001F006
:106E16001BC002F0000E046E030E036E29EC33F065
:106E260001501224D96E02501320DA6E1AC001F0F6
:106E36001BC002F0000E046E030E036E29EC33F045
:106E460001501024E16E02501120E26EDECFE6FF03
:106E5600DECFE6FFDECFE5FFE55216D01AC001F021
:106E66001BC002F0000E046E030E036E29EC33F015
:106E760001501024D96E02501120DA6E14C0DEFFC4
:106E860015C0DEFF16C0DDFF1A4A1B2A97D712006F
:106E960091EC34F0C180C182C184C186808034EC1B
:106EA60035F001C0EDF002C0EEF0EDC009F0EEC025
:106EB6000AF0BBEC33F009C0E7F00AC0E8F00BC0FB
:106EC600E9F0E7C053F0E8C054F0E9C055F07EECB5
:106ED6003CF053C0E1F054C0E2F055C0E3F0EDC021
:106EE60009F0EEC00AF0BBEC33F009C0EAF00AC0C4
:106EF600EBF00BC0ECF0EAC053F0EBC054F0ECC082
:106F060055F03FEC3EF053C0E4F054C0E5F055C0F8
:106F1600E6F081B481A60BD081B081A808D081A209
:106F260006D0640E346E640EEFEC32F0B8D7E1ECA6
:106F360032F0E1C01CF0E2C01DF0E3C01EF090ECA0
:106F460035F01CC0DDF01DC0DEF01EC0DFF01FC036
:106F5600E0F00001DD51DFEC33F0E4C01CF0E5C0E9
:106F66001DF0E6C01EF090EC35F01CC0DDF01DC033
:106F7600DEF01EC0DFF01FC0E0F00001DD5114ECB2
:106F860034F08DD7000E446E000E436E71D043C0B0
:106F960001F044C002F0000E046E030E036E29ECED
:106FA60033F001503724D96E02503820DA6E39C0DA
:106FB60010F03AC011F03BC012F0010E4324416EAE
:106FC600000E4420426E411E421E414A422A3F5054
:106FD6004124096E405042200A6EBBEC33F009C0D2
:106FE6000DF00AC00EF00BC00FF065EC36F00DC0C8
:106FF6001FF00EC020F00FC021F03CC010F03DC0C5
:1070060011F03EC012F043C009F044C00AF0BBECD8
:1070160033F009C00DF00AC00EF00BC00FF065EC9E
:1070260036F00DC01CF00EC01DF00FC01EF088EC2F
:1070360039F01CC028F01DC029F01EC02AF0FF0E32
:107046003F24096EFF0E40200A6EBBEC33F009C0E8
:107056002BF00AC02CF00BC02DF0FAEC35F028C04E
:10706600DEFF29C0DEFF2AC0DDFFDD52434A442A87
:107076004450800A416E3F50435C4050800A41585C
:10708600D8B0120084D7000E0001D96F000E00019F
:10709600D86F0001D951800A800F280ED8B4D85D68
:1070A600D8B02DD0D8C001F0D9C002F0000E046EC1
:1070B600030E036E29EC33F001504824D96E0250BA
:1070C6004920DA6ED8C001F0D9C002F0000E046E75
:1070D600030E036E29EC33F00001600E0124E16E0D
:1070E6000001000E0220E26EDECFE6FFDECFE6FFF5
:1070F600DECFE5FFE5520001D84BD92BCAD7000EEB
:107106000001D96F000E0001D86F0001D951800A25
:10711600800F280ED8B4D85DD8B045D0D8C001F0BD
:10712600D9C002F0000E046E030E036E29EC33F094
:1071360001504624D96E02504720DA6E4AC037F015
:107146004BC038F04CC039F04DC03AF04EC03BF061
:107156004FC03CF050C03DF051C03EF052C03FF031
:10716600D8C001F0D9C002F0000E046E030E036E03
:1071760029EC33F001504824E16E02504920E26EBA
:10718600E6CF40F0E6CF41F0E5CF42F05EEC3AF0D4
:1071960037C0DEFF38C0DEFF39C0DDFFDD5200013B
:1071A600D84BD92BB2D71200000E3E6E000E3F6EA2
:1071B600000E406E000E416E000E426E000E436ED3
:1071C600000E3B6E000E3C6E000E3D6E000E456ED0
:1071D600000E446E4550800A800F280ED8B4445CD9
:1071E600D8B045D03EC01CF03FC01DF040C01EF0D8
:1071F60044C001F045C002F0000E046E030E036E9B
:1072060029EC33F001503924D96E02503A20DA6E57
:10721600DECF10F0DECF11F0DDCF12F044C001F06A
:1072260045C002F0000E046E030E036E29EC33F027
:1072360001503724D96E02503820DA6EDECF0DF0B9
:10724600DECF0EF0DDCF0FF065EC36F00DC01FF08F
:107256000EC020F00FC021F088EC39F01CC03EF0C3
:107266001DC03FF01EC040F0444A452AB3D7000E69
:10727600456E000E446E4550800A800F280ED8B425
:10728600445CD8B027D041C01CF042C01DF043C0BA
:107296001EF044C001F045C002F0000E046E030E5D
:1072A600036E29EC33F001503924D96E02503A208E
:1072B600DA6EDECF1FF0DECF20F0DDCF21F088ECD6
:1072C60039F01CC041F01DC042F01EC043F0444AD4
:1072D600452AD1D73EC028F03FC029F040C02AF049
:1072E60041C02BF042C02CF043C02DF0FAEC35F033
:1072F60028C03BF029C03CF02AC03DF03BC037F027
:107306003CC038F03DC039F012001EC022F0236A9E
:10731600246A1D34223601E323802250276E21C0C1
:1073260022F0236A246A2034223601E32380225085
:10733600266E2750D8B40CD02650275CD8B00FD074
:10734600275000082624226E190E225CD8A007D0EA
:107356001FC01CF020C01DF021C01EF0ABD026506F
:10736600D8B40CD02750265CD8B00FD026500008D1
:107376002724226E190E225CD8A007D01CC01CF050
:107386001DC01DF01EC01EF095D0060E256E1EBE39
:10739600258E21BE258C1D8EFF0E1C16FF0E1D167A
:1073A600000E1E16208EFF0E1F16FF0E2016000E54
:1073B60021162650275CD8B01AD0D8901F36203612
:1073C6002136260626502718D8B40DD0250625C006
:1073D60022F0070E2216D8B406D0EFD7D8901E3268
:1073E6001D321C32272A26502762F8D71DD0275077
:1073F600265CD8B019D0D8901C361D361E36270606
:1074060026502718D8B40DD0250625C022F0070E21
:107416002216D8B406D0EFD7D890213220321F32A8
:10742600262A26502762F8D725AE0CD0FF0E1C1A46
:10743600FF0E1D1AFF0E1E1A010E1C26000E1D221F
:10744600000E1E2225AC0CD0FF0E1F1AFF0E201AAE
:10745600FF0E211A010E1F26000E2022000E2122E9
:10746600000E256E1C501F261D5020221E50212264
:1074760021AE0ED0FF0E1F1AFF0E201AFF0E211A84
:10748600010E1F26000E2022000E2122010E256E5F
:107496001FC001F020C002F021C003F027C004F095
:1074A60025C005F0E0EC34F001C01CF002C01DF070
:1074B60003C01EF01200000E436E000E446E000E56
:1074C600456E37C007F038C008F039C009F040C033
:1074D6000AF041C00BF042C00CF049EC34F0D8A0E1
:1074E60006D0000E436E000E446E000E456E37C089
:1074F60007F038C008F039C009F040C00AF041C0B2
:107506000BF042C00CF049EC34F0D8B050D040C07B
:1075160007F041C008F042C009F03AC00AF03BC08B
:107526000BF03CC00CF049EC34F0D8B040D040C071
:107536001FF041C020F042C021F037C001F038C032
:1075460002F039C003F03CEC33F001C01CF002C07D
:107556001DF003C01EF088EC39F01CC028F01DC0D9
:1075660029F01EC02AF03AC01FF03BC020F03CC0F4
:1075760021F037C001F038C002F039C003F03CEC0E
:1075860033F001C01CF002C01DF003C01EF088ECF1
:1075960039F01CC02BF01DC02CF01EC02DF0FAECEB
:1075A60035F028C043F029C044F02AC045F03C50CD
:1075B600421805E13B50411802E13A504018D8A460
:1075C60006D0000E436E800E446E3F0E456E3AC0E6
:1075D60007F03BC008F03CC009F040C00AF041C0CB
:1075E6000BF042C00CF049EC34F0D8B050D040C09B
:1075F60007F041C008F042C009F03DC00AF03EC0A5
:107606000BF03FC00CF049EC34F0D8B040D03DC090
:107616001FF03EC020F03FC021F040C001F041C045
:1076260002F042C003F03CEC33F001C01CF002C093
:107636001DF003C01EF088EC39F01CC028F01DC0F8
:1076460029F01EC02AF03DC01FF03EC020F03FC00A
:1076560021F03AC001F03BC002F03CC003F03CEC24
:1076660033F001C01CF002C01DF003C01EF088EC10
:1076760039F01CC02BF01DC02CF01EC02DF0FAEC0A
:1076860035F028C043F029C044F02AC045F043C075
:1076960037F044C038F045C039F01200000E196EBC
:1076A600000E186E1950800A800F280ED8B4185C88
:1076B600D8B020D118C001F019C002F0000E046E37
:1076C600030E036E29EC33F001501424D96E0250D8
:1076D6001520DA6EDECF07F0DECF08F0DDCF09F039
:1076E60018C001F019C002F0000E046E030E036EFE
:1076F60029EC33F001501224D96E02501320DA6EB1
:10770600DECF0AF0DECF0BF0DDCF0CF049EC34F023
:10771600D8B04BD018C001F019C002F0000E046EAC
:10772600030E036E29EC33F001501624D96E025075
:107736001720DA6EDECF07F0DECF08F0DDCF09F0D6
:1077460018C001F019C002F0000E046E030E036E9D
:1077560029EC33F001501224D96E02501320DA6E50
:10776600DECF0AF0DECF0BF0DDCF0CF049EC34F0C3
:10777600D8B01BD018C001F019C002F0000E046E7C
:10778600030E036E29EC33F001501224D96E025019
:107796001320DA6E18C001F019C002F0000E046E54
:1077A600030E036E29EC33F095D018C001F019C012
:1077B60002F0000E046E030E036E29EC33F0015046
:1077C6001224D96E02501320DA6EDECF07F0DECF18
:1077D60008F0DDCF09F018C001F019C002F0000E64
:1077E600046E030E036E29EC33F001501424D96E97
:1077F60002501520DA6EDECF0AF0DECF0BF0DDCFB9
:107806000CF049EC34F0D8B04BD018C001F019C0D8
:1078160002F0000E046E030E036E29EC33F00150E5
:107826001624D96E02501720DA6EDECF07F0DECFAF
:1078360008F0DDCF09F018C001F019C002F0000E03
:10784600046E030E036E29EC33F001501424D96E36
:1078560002501520DA6EDECF0AF0DECF0BF0DDCF58
:107866000CF049EC34F0D8B01BD018C001F019C0A8
:1078760002F0000E046E030E036E29EC33F0015085
:107886001424D96E02501520DA6E18C001F019C002
:1078960002F0000E046E030E036E29EC33F01AD0CC
:1078A60018C001F019C002F0000E046E030E036E3C
:1078B60029EC33F001501624D96E02501720DA6EE7
:1078C60018C001F019C002F0000E046E030E036E1C
:1078D60029EC33F001501024E16E02501120E26EC3
:1078E600DECFE6FFDECFE6FFDECFE5FFE552184A44
:1078F600192AD8D612000601060E386E0601000EA9
:10790600376E000E396E000E3A6EC00E3B6E000EDC
:107916003C6E000E3D6E400E3E6E000E406E280E12
:107926003F6EC5EC37F00601060E386E0601780E7E
:10793600376E000E396E000E3A6E000E3B6E000E6C
:107946003C6EC80E3D6E420E3E6E000E406E280E18
:107956003F6EC5EC37F00101010E476E0101000EC6
:10796600466E0601060E496E0601000E486E660E4C
:107976004A6E660E4B6EC00E4C6E000E4D6E000EBD
:107986004E6EC00E4F6ECD0E506ECC0E516EBE0EAC
:10799600526E46EC38F00101010E476E0101780E79
:1079A600466E0601060E496E0601000E486ECD0EA5
:1079B6004A6ECC0E4B6EBF0E4C6E000E4D6E000E18
:1079C6004E6E000E4F6ECD0E506ECC0E516E3F0EAB
:1079D600526E46EC38F00201020E476E0201780E36
:1079E600466E0601060E496E0601000E486ECD0E65
:1079F6004A6ECC0E4B6E3E0E4C6E000E4D6E000E59
:107A06004E6E400E4F6E660E506E660E516E400EF6
:107A1600526E46EC38F00301030E476E0301000E6A
:107A2600466E0601060E496E0601780E486E000E79
:107A36004A6E200E4B6EC20E4C6E000E4D6E000E40
:107A46004E6E000E4F6E000E506E200E516E420EA0
:107A5600526E46EC38F00201020E476E0201000E2D
:107A6600466E0601060E496E0601780E486E000E39
:107A76004A6E200E4B6E410E4C6E000E4D6E480E39
:107A86004E6E420E4F6E000E506EB40E516E420E8A
:107A9600526E46EC38F00501050E476E0501000EE4
:107AA600466E0601060E496E0601780E486E000EF9
:107AB6004A6E700E4B6E420E4C6E000E4D6EC80E28
:107AC6004E6E420E4F6E000E506E0C0E516E430EF1
:107AD600526E46EC38F0660E376E660E386EC00E85
:107AE600396E000E3A6E000E3B6EC00E3C6ECD0E29
:107AF6003D6ECC0E3E6EBE0E3F6E53C040F054C07F
:107B060041F055C042F05EEC3AF037C056F038C04E
:107B160057F039C058F0CD0E376ECC0E386EBF0E0A
:107B2600396E000E3A6E000E3B6E000E3C6ECD0EA8
:107B36003D6ECC0E3E6E3F0E3F6E53C040F054C0BD
:107B460041F055C042F05EEC3AF037C059F038C00B
:107B56005AF039C05BF0CD0E376ECC0E386E3E0E45
:107B6600396E000E3A6E000E3B6E400E3C6E660E8F
:107B76003D6E660E3E6E400E3F6E53C040F054C0E2
:107B860041F055C042F05EEC3AF037C05CF038C0C8
:107B96005DF039C05EF00301030E116E0301780E2D
:107BA600106E0501050E136E0501000E126E56C00D
:107BB60014F057C015F058C016F0D7EC36F0040193
:107BC600040E116E0401780E106E0501050E136E7B
:107BD6000501000E126E59C014F05AC015F05BC0B4
:107BE60016F0D7EC36F00401040E116E0401000EF7
:107BF600106E0301030E136E0301000E126E5CC0BD
:107C060014F05DC015F05EC016F0D7EC36F0050135
:107C1600050E116E0501780E106E0301030E136E2C
:107C26000301780E126E0401040E156E0401780E1F
:107C3600146E0401040E176E0401000E166E51EC4C
:107C46003BF00601060E386E0601780E376E05010A
:107C5600050E3A6E0501780E396ED7EC38F037C04E
:107C6600DAF038C0DBF039C0DCF0DAC053F0DBC044
:107C760054F0DCC055F012000601060E386E0601FF
:107C8600000E376E000E396E000E3A6EC00E3B6E59
:107C9600000E3C6E000E3D6E400E3E6E000E406EB7
:107CA600280E3F6EC5EC37F00601060E386E06014B
:107CB600780E376E000E396E000E3A6E000E3B6E71
:107CC600000E3C6EC80E3D6E420E3E6E000E406EBD
:107CD600280E3F6EC5EC37F00101010E476E01011B
:107CE600000E466E0601060E496E0601000E486E2F
:107CF600660E4A6E660E4B6EC00E4C6E000E4D6ED4
:107D0600000E4E6EC00E4F6ECD0E506ECC0E516EE6
:107D1600BE0E526E46EC38F00101010E476E0101AF
:107D2600780E466E0601060E496E0601000E486E76
:107D3600CD0E4A6ECC0E4B6EBF0E4C6E000E4D6EC7
:107D4600000E4E6E000E4F6ECD0E506ECC0E516E66
:107D56003F0E526E46EC38F00201020E476E0201EB
:107D6600780E466E0601060E496E0601000E486E36
:107D7600CD0E4A6ECC0E4B6E3E0E4C6E000E4D6E08
:107D8600000E4E6E400E4F6E660E506E660E516EB3
:107D9600400E526E46EC38F00301030E476E0301A7
:107DA600000E466E0601060E496E0601780E486EF6
:107DB600000E4A6E200E4B6EC20E4C6E000E4D6EBD
:107DC600000E4E6E000E4F6E000E506E200E516E5F
:107DD600420E526E46EC38F00201020E476E020168
:107DE600000E466E0601060E496E0601780E486EB6
:107DF600000E4A6E200E4B6E410E4C6E000E4D6EFE
:107E0600480E4E6E420E4F6E000E506EB40E516E00
:107E1600420E526E46EC38F00501050E476E05011E
:107E2600000E466E0601060E496E0601780E486E75
:107E3600000E4A6E700E4B6E420E4C6E000E4D6E6C
:107E4600C80E4E6E420E4F6E000E506E0C0E516EE8
:107E5600430E526E46EC38F0660E376E660E386E7E
:107E6600C00E396E000E3A6E000E3B6EC00E3C6EB2
:107E7600CD0E3D6ECC0E3E6EBE0E3F6E53C040F034
:107E860054C041F055C042F05EEC3AF037C056F0AF
:107E960038C057F039C058F0CD0E376ECC0E386E5C
:107EA600BF0E396E000E3A6E000E3B6E000E3C6E33
:107EB600CD0E3D6ECC0E3E6E3F0E3F6E53C040F073
:107EC60054C041F055C042F05EEC3AF037C059F06C
:107ED60038C05AF039C05BF0CD0E376ECC0E386E16
:107EE6003E0E396E000E3A6E000E3B6E400E3C6E34
:107EF600660E3D6E660E3E6E400E3F6E53C040F0FF
:107F060054C041F055C042F05EEC3AF037C05CF028
:107F160038C05DF039C05EF00301030E116E030137
:107F2600780E106E0301030E136E0301000E126E1F
:107F360056C014F057C015F058C016F0D7EC36F0FE
:107F46000401040E116E0401780E106E0501050E73
:107F5600136E0501000E126E59C014F05AC015F0CA
:107F66005BC016F0D7EC36F00401040E116E040166
:107F7600000E106E0501050E136E0501000E126E41
:107F86005CC014F05DC015F05EC016F0D7EC36F09C
:107F96000501050E116E0501780E106E0301030E24
:107FA600136E0301780E126E0401040E156E0401A1
:107FB600780E146E0401040E176E0401000E166E80
:107FC60051EC3BF00601060E386E0601780E376E50
:107FD6000501050E3A6E0501780E396ED7EC38F0BC
:107FE60037C0DAF038C0DBF039C0DCF0DAC053F065
:0A7FF600DBC054F0DCC055F01200AF
:020000040020DA
:08000000FFFFFFFFFFFFFFFF00
:020000040030CA
:0E0000002008191EFF8181FF0FC00FE00F4086
:00000001FF
